:030000000207BA3A
:0C07BA00787FE4F6D8FD75817902080113
:1004230059656C6C6F772D436F6C64706C617900E8
:100433005265636F6D706F73656400427920537406
:10044300656C6C61303330002254686973206973C2
:10045300206120736F6E6700666F72206D79206C68
:100463006F76652E22004C6F6F6B20617420746869
:1004730065007374617273004C6F6F6B20686F77E4
:100483002074686579007368696E6520666F7220F1
:10049300796F7500416E6420657665727974686959
:1004A3006E6700796F7520646F00596561682C2051
:1004B30074686579207765726500616C6C20796575
:1004C3006C6C6F7700492063616D6520616C6F6EA2
:1004D3006700492077726F7465206120736F6E67C0
:1004E30000666F7220796F7500416E6420616C6CD9
:1004F30020746865007468696E677320796F75206E
:10050300646F00416E6420697420776173006361D6
:100513006C6C65642079656C6C6F7700536F207425
:1005230068656E204920746F6F6B006D7920747558
:10053300726E004F682C20776861742061207468A4
:10054300696E6700746F206861766520646F6E65FD
:1005530000416E642069742077617320616C6C00C4
:1005630079656C6C6F7700596F757220736B696E68
:10057300004F6820796561682C20796F757200736C
:100583006B696E20616E6420626F6E6573005475D3
:10059300726E20696E746F00736F6D657468696E37
:1005A300670062656175746966756C00446F2079D4
:1005B3006F75206B6E6F7700596F75206B6E6F7759
:1005C3002049206C6F766500796F7520736F001179
:1005D3000411061102110411041106110211041170
:1005E3000211021102110211021102110211021170
:1005F300021102110211021102110211020002FF83
:100603001402140214021402140214021402140237
:100613001402120212021202120212021202120235
:1006230018021802180218021802180218021802F7
:10063300180216021602160216021602160200020B
:10064300FF0F020F020F020F020F020F020F020F22
:10065300020F020D020D020D020D020D020D020D1D
:1006630002140214021402140214021402140214D7
:1006730002140212021202120212021202120212D5
:10068300020002FF1B021D021B021D040004FF00E7
:10069300021B021D021B021D0420061B060008FF8D
:1006A300000219021B0219021B0420021906000C86
:1006B300FF0003160119011601190419011601148B
:1006C300040002FF110211021102110211021102B0
:1006D30011020002FF110211021102110211021193
:1006E300021102120212021202120211021102116B
:1006F3000211020004FF1904220620020002FF195E
:10070300021902200220021D021D040004FF190227
:100713002202220620020002FF19021902200220EF
:10072300021D021D040004FF1902220222062002F8
:100733000002FF19021902200220021D021D0416E5
:10074300080008FF000219021902200220021D02FC
:100753001D0414080008FFFF0423FF0433FF043EB5
:10076300FF044BFF045BFF0469FF0475FF047BFF79
:100773000489FF0497FF04A6FF04ADFF04BDFF0433
:10078300C8FF04D5FF04E4FF04ECFF04F8FF0506EB
:10079300FF0511FF051FFF052EFF0536FF0547FF68
:1007A3000554FF0563FF056AFF0591FF059BFF05E0
:0707B300A5FF05BBFF05CB0C
:1008A600204A2B0000F88CF8F3F95BF9B8FA15FA30
:1008B60067FAB9FB04FB4BFB90FBCFFC10FC44FC36
:1008C60079FCACFCDCFD09FD34FD5CFD82FDA6FD7A
:1008D600C8FDE8FE06FE22FE3DFE56FE6EFE85FEC5
:1008E6009AFEAEFEC1FED3FEE4FEF4FF030324FF30
:0C08F60005740327FF05820308FF05AF0F
:080846007BFF7A0679927E0027
:10084E008E758F768B778A788979AF76740D2FF8BF
:10085E00E6AB77AA78A979F582758300120937FE7F
:10086E00F460328E2A740D2FF806740D2576F8E694
:10087E00F58275830012093775F07DA4FFAEF01274
:10088E00099E740D2576F806C28C7F057E0012092E
:08089E009ED28C80B50209B363
:10000E001209871209B390075AE493FB740193FA0D
:10001E00740293F97D017F011209647BFF7A0579E1
:10002E00D2E4FFFE12084E90075DE493FB74019339
:10003E00FA740293F97D017F01120964900760E45E
:10004E0093FB740193FA740293F97D057F021209F2
:10005E00647BFF7A0679037F017E0012084E9007BB
:10006E0063E493FB740193FA740293F97D017F01AB
:10007E00120964900766E493FB740193FA74029379
:10008E00F97D047F021209647BFF7A0679447F02B0
:10009E007E0012084E900769E493FB740193FA7484
:1000AE000293F97D017F0112096490076CE493FBC2
:1000BE00740193FA740293F97D017F021209647B35
:1000CE00FF7A0679877F037E0012084E90076FE451
:1000DE0093FB740193FA740293F97D017F01120967
:1000EE0064900772E493FB740193FA740293F97DA2
:1000FE00017F021209647F04120846900775E4938B
:10010E00FB740193FA740293F97D017F0112096465
:10011E00900778E493FB740193FA740293F97D01CE
:10012E007F021209647BFF7A0679A37F057E001297
:10013E00084E90077BE493FB740193FA740293F9D3
:10014E007D017F0112096490077EE493FB74019395
:10015E00FA740293F97D017F021209647BFF7A061D
:10016E0079B47F067E0012084E900781E493FB74EB
:10017E000193FA740293F97D017F011209647BFFEA
:10018E007A0679877F077E0012084E900784E493E3
:10019E00FB740193FA740293F97D017F01120964D5
:1001AE00900787E493FB740193FA740293F97D012F
:1001BE007F021209647F0812084690078AE493FBB7
:1001CE00740193FA740293F97D017F011209649010
:1001DE00078DE493FB740193FA740293F97D017F0A
:1001EE00021209647BFF7A0679A37F097E0012084A
:1001FE004E900790E493FB740193FA740293F97D89
:10020E00017F01120964900793E493FB740193FA42
:10021E00740293F97D017F021209647BFF7A0679DD
:10022E00B47F0A7E0012084E7BFF7A0679C77F0BD9
:10023E007E0012084E900796E493FB740193FA74B5
:10024E000293F97D017F01120964900799E493FBF3
:10025E00740193FA740293F97D017F021209647B93
:10026E00FF7A0679927F0C7E0012084E90079CE46E
:10027E0093FB740193FA740293F97D017F011209C5
:10028E006490079FE493FB740193FA740293F97DD3
:10029E00017F021209647BFF7A0679A37F0D7E002F
:1002AE0012084E9007A2E493FB740193FA74029322
:1002BE00F97D017F011209649007A5E493FB740197
:1002CE0093FA740293F97D017F021209647BFF7A1F
:1002DE000679B47F0E7E0012084E7BFF7A0679D81F
:1002EE007F0F7E0012084E9007A8E493FB740193D3
:1002FE00FA740293F97D017F011209647BFF7A067D
:10030E0079F97F107E0012084EAB24AA25A9267D0E
:10031E00017F01120964AB27AA28A9297D017F025A
:10032E001209647BFF7A0779027F117E0012084E54
:10033E009007ABE493FB740193FA740293F97D0179
:10034E007F011209647BFF7A0779117F127E0012FA
:10035E00084E9007AEE493FB740193FA740293F97E
:10036E007D017F011209649007B1E493FB74019340
:10037E00FA740293F97D087F021209647BFF7A07F3
:10038E00791C7F167E0012084EAB08AA09A90A7DB9
:10039E00017F011209647BFF7A07792B7F137E00A0
:1003AE0012084E9007B4E493FB740193FA7402930F
:1003BE00F97D017F011209649007B7E493FB740184
:1003CE0093FA740293F97D017F021209647BFF7A1E
:1003DE000779367F147E0012084E9007B4E493FB23
:1003EE00740193FA740293F97D017F0112096490EE
:1003FE0007B7E493FB740193FA740293F97D017FBE
:10040E00021209647BFF7A0779477F157E00120876
:05041E004EC28C80FEBF
:03000B00020903E4
:10090300C0E0C0D075D000C000C006E52A25E024B1
:100913002BF8E6FE08E64E6012E52A25E0242BF8C4
:10092300E6FE08E6F58AEEF58CB2A5D006D000D037
:04093300D0D0E0320E
:10099E00EF1FAC0670011E4C600A7D027CEFDCFE80
:0409AE00DDFC80EC00
:0109B2002222
:100987005389F0438901758A18758CFCC28DD28C06
:07099700D2A9D2AFC2B922C0
:0609D700C2A58F80D2A72B
:0809DD007F027EEFDEFEDFFC6D
:0109E50022EF
:0A09E600C2A61209D7C2A70209DD5C
:0A09F000D2A61209D7C2A70209DD42
:1009B3007F381209E67F0C1209E67F061209E67FEB
:0409C300010209E63E
:1009C700EDBF0103148002243F4480FF1209E62291
:060964008B758A7689778D
:10096A001209C7E4FDAB75AA76A9778D8275830053
:0C097A00120937FF60061209F00D80E939
:01098600224E
:1007C60002000EE493A3F8E493A34003F68001F23B
:1007D60008DFF48029E493A3F85407240CC8C33334
:1007E600C4540F4420C8834004F456800146F6DF03
:1007F600E4800B01020408102040809008A6E47EE5
:10080600019360BCA3FF543F30E509541FFEE493F7
:10081600A360010ECF54C025E060A840B8E493A3BE
:10082600FAE493A3F8E493A3C8C582C8CAC583CAE9
:10083600F0A3C8C582C8CAC583CADFE9DEE780BEA1
:0109020000F4
:10093700BB010CE58229F582E5833AF583E0225075
:1009470006E92582F8E622BBFE06E92582F8E222BF
:0D095700E58229F582E5833AF583E49322D9
:00000001FF
